:020000040800F2
:10000000A05E002059020008CD240008191A00083B
:1000100065220008A10D000835420008000000001C
:10002000000000000000000000000000A101000826
:100030008513000800000000F501000841340008A5
:1000400073020008730200087302000873020008BC
:1000500073020008730200087302000873020008AC
:10006000730200087302000873020008730200089C
:10007000730200087302000873020008730200088C
:10008000730200087302000873020008730200087C
:100090005D0F000873020008730200087302000875
:1000A0007302000871370008730200081535000854
:1000B0008137000891370008A5370008730200084F
:1000C000730200087302000873020008730200083C
:1000D00073020008153F0008730200080940000879
:1000E000730200087302000873020008730200081C
:1000F000730200087302000873020008730200080C
:100100007302000873020008B93700087302000880
:10011000E93C00087302000873020008730200083B
:1001200073020008730200087302000873020008DB
:1001300073020008730200087302000873020008CB
:1001400073020008730200087302000873020008BB
:1001500073020008730200087302000873020008AB
:10016000730200087302000873020008730200089B
:10017000730200087302000873020008730200088B
:100180007302000873020008DFF810D000F06AFB69
:100190000048004729550008AFF30080A05E00200A
:1001A0002A4B19680868B0E8F04F80F30988BFF35C
:1001B0006F8F4FF0000080F311887047000000003F
:1001C00006480068006880F3088862B661B6BFF32D
:1001D0004F8FBFF36F8F00DF00BF00BF08ED00E05F
:1001E000DFF80C00016841F470010160704700BF46
:1001F00088ED00E0EFF30980BFF36F8F134B1A68AF
:100200001EF0100F08BF20ED108A20E9F04F10609B
:1002100008B44FF0500080F31188BFF34F8FBFF345
:100220006F8F06F007FF4FF0000080F3118808BCC5
:1002300019680868B0E8F04F1EF0100F08BFB0EC66
:10024000108A80F30988BFF36F8F7047D0000020B9
:10025000EFF30580704700000648804706480047D6
:10026000FEE7FEE7FEE7FEE7FEE7FEE7FEE7FEE766
:10027000FEE7FEE7553400088901000840EA010363
:100280009B0703D009E008C9121F08C0042AFAD24C
:1002900003E011F8013B00F8013B521EF9D2704710
:1002A000D2B201E000F8012B491EFBD270470022B8
:1002B000F6E710B513460A4604461946FFF7F0FF65
:1002C000204610BD2DE9FE4F804681EA0300C00F95
:1002D0000C46009021F0004123F00045B8EB0200ED
:1002E000A94105D24046214690461C460B4602468F
:1002F00023F00040104347D0270DC7F30A00C3F393
:100300000A510290401A019040286BDAC3F313009F
:1003100040F4801B0098924620B10023D2EB030AE0
:1003200063EB0B0B01985946C0F14002504600F0B8
:1003300045F906460D4650465946019A00F04DF9DA
:1003400010EB08006141002487EA115284EAE77348
:100350001A4340D0009A62B3019A012A4FEA075229
:1003600015DC001B61EB02014FF0004202EA07526C
:10037000CDE90042001C41F5801132462B4600F0C9
:1003800084F903B0BDE8F08F40462146F9E7001B31
:1003900061EB0201001C41F5801300185B4120183D
:1003A000A2F5001747EB030140EAD570B6196D417D
:1003B00011E06D084FEA360645EAC0754FEA07526C
:1003C000001B61EB0201001C41F5801149084FEA56
:1003D00030000019514132462B4603B0BDE8F04FC2
:1003E00000F044B90098012240000023D0EB020243
:1003F00063EBE073009821464FEAE074B8EB00002D
:1004000061EB0401E9E783F000435BE781F0004121
:1004100058E72DE9FE4F81EA030404F0004421F07F
:10042000004100944FF0000B23F0004350EA010418
:100430005ED052EA03045BD0C3F30A54C1F30A55F9
:100440002C44A4F2F3340194A0FB0254C1F3130131
:1004500041F48011C3F3130343F4801301FB0244FE
:1004600000FB034E840A970A44EA815447EA835703
:10047000A4FB076802958D0A05FB07854FEA932CBC
:1004800004FB0C542705029D4FEA065847EA16372D
:10049000B5EB08056EEB070C870E920E47EA811745
:1004A00042EA8312A7FB0201B6EB0B0164EB0004E6
:1004B0002B0D43EA0C335E1844EB1C50DA465146D0
:1004C000E7FB0201C5F313044FEA0B3343EA14536D
:1004D0004FEA0432019C43EA0603A4F10C0402949F
:1004E000009CCDE900B400F0D0F803B0BDE8F08F77
:1004F00000200146F9E70EB5C10F80EAE07008441C
:10050000CA07002140F233438DE80E000A460B462D
:1005100000F0BBF803B000BD0EB540F233410291CC
:100520000021CDE900110A460B4600F0AEF803B0F9
:1005300000BD00F0004230F000400AD0C10D01F5CE
:100540006071C0F3160042EA0151C208400711432E
:10055000704700200146704701F0004330B421F09D
:10056000004150EA010206D00A0DA2F56072C1F303
:100570001301002A02DC30BC00207047440F44EA1B
:10058000C104C100E01830BC00EBC25000F037B825
:1005900030B50B46014600202022012409E021FA53
:1005A00002F59D4205D303FA02F5491B04FA02F550
:1005B0002844151EA2F10102F1DC30BD202A04DB23
:1005C000203A00FA02F1002070479140C2F1200366
:1005D00020FA03F3194390407047202A06DBCB171B
:1005E000203A41FA02F043EAE07306E041FA02F3EE
:1005F000D040C2F1200291400843194670470029BB
:10060000A8BF7047401C490008BF20F00100704798
:1006100010B4B0FA80FC00FA0CF050EA010404BFF8
:1006200010BC704749B1CCF1200421FA04F411FA4E
:100630000CF118BF012121430843A3EB0C01CB1D92
:100640004FEA00614FEA102042BF002010BC704703
:1006500000EBC35010440029A4BF10BC7047401CDD
:10066000490008BF20F0010010BC704710B5141EEF
:1006700073F1000408DA401C41F1000192185B415B
:100680001A4301D120F0010010BD2DE9F04D924632
:100690009B4611B1B1FA81F202E0B0FA80F2203249
:1006A0009046FFF78BFF04460F4640EA0A0041EAF6
:1006B0000B0153465A46084313D0114653EA010032
:1006C00019D0C8F14002504600F0DEF805460E464B
:1006D000504659464246FFF771FF084305D00120B6
:1006E00004E020463946BDE8F08D0020054346EA87
:1006F000E0762C4337430A986305E40AA0EB080030
:100700000022FD0A44EA47540A3002D5002001467F
:10071000E9E7010510196941DDE90845001969415A
:10072000BDE8F04DA2E72DE9F04D81EA030404F0A5
:10073000004B21F0004514464FF0000A23F0004121
:1007400050EA050220D054EA01021DD0C5F30A5731
:100750000246C5F31303C1F31300C1F30A5640F474
:10076000801543F48013A7EB0608101BD64608F249
:10077000FD3873EB050002D308F1010801E092187F
:100780005B41B8F1000F03DA00200146BDE8F08DAF
:1007900000204FF48011064684460EE0171B73EBD1
:1007A000050705D3121B63EB050306434CEA010C56
:1007B00049084FEA300092185B4150EA0107EDD139
:1007C00052EA030012D082EA040083EA05010843DA
:1007D00005D0101BAB4106D20122002306E0002207
:1007E0004FF0004302E06FF0010253101AEB0600D5
:1007F0004CEB085110EB0A0041EB0B01BDE8F04D4A
:10080000FFF734BF70B521F0004303430CD0C1F3B0
:100810000A550024D5EB040564EB0403D617AD1A82
:10082000B34102DB0020014670BD201841EB0251AC
:1008300070BD000030B5041E71F1000404DB4FF000
:100840000044404264EB0101141E73F1000405DB17
:100850001C464FF00043524263EB0403994208BF29
:10086000904230BD064C074D06E0E06840F00103C1
:1008700094E8070098471034AC42F6D3FFF788FCA1
:10088000C8910008E8910008202A04DB203A21FAE8
:1008900002F00021704721FA02F3D040C2F1200299
:1008A00091400843194670472DE9F04D00231A4640
:1008B0001B1A8A4103DB00200146BDE8F08DC1F31D
:1008C0000A52C1F3130141F480154FF0000BD10718
:1008D00002D100186D41521E0027044640F2FF115C
:1008E000384601EB620A3E468046024600204FF43D
:1008F0008011FFF7C9FFC2197141BB1846EB010017
:10090000B4EB030C75EB000C04D3E41A65EB0005A3
:1009100017460E46241908F101006D41804634281F
:10092000E3DDF91946EB0600091BA84103D24FF09D
:10093000FF32134601E0002213461BEB070046EB93
:100940000A51BDE8F04DFFF791BE70B58C1810F854
:10095000015B15F0070301D110F8013B2A1106D104
:1009600010F8012B03E010F8016B01F8016B5B1E1E
:10097000F9D12B0705D40023521E0DD401F8013BF9
:10098000FAE710F8013BCB1A921C03E013F8015B65
:1009900001F8015B521EF9D5A142D8D3002070BDE9
:1009A0000029816802D041F0010101E021F001013C
:1009B00081607047084B10B5D3F8042307490A40FB
:1009C000D0E900142143D0E90240044321431143FC
:1009D000C3F8041310BD000000200140E030FCFF0C
:1009E000C06C80B270470246002012680A4200D0F4
:1009F0000120704730B542680F4B0C791A400B68E4
:100A000042EA04221343436082680C4B4D791A403A
:100A1000D1E9034323438C6844EA45042343134349
:100A20008360C26A097D22F47002491EC9B242EA9B
:100A30000151C16230BD0000FFFEFFFCFDF7FFC0A9
:100A400070B5072609290AD9C568A1F10A0404EB83
:100A50004404A640B543A3401D43C56007E00569B3
:100A600001EB4104A640B543A3401D4305611F238C
:100A7000072A09D2446B521E02EB820293409C4328
:100A800091400C43446370BD0D2A09D2046BD21F00
:100A900002EB820293409C4391400C43046370BD7F
:100AA000C46A0D3A02EB820293409C4391400C438E
:100AB000C46270BD816841F0804181607047000070
:100AC00038B536489FED360ADFED360A90ED001A4C
:100AD00051EE000AB1EE041A60EE810AB3EE0A1A72
:100AE000C0EE811AFDEEE10A10EE903A642B00DDB3
:100AF00064232D48D0ED000A60EE800AFDEEE00A86
:100B000010EE900A002800DA40422849D1ED000A90
:100B100020EE800ABDEEC00A10EE101A002900DA9D
:100B20004942234C2278A2B100222270214C257820
:100B3000012D10D0204DB5F904403AB3B5F902208B
:100B4000B5F9001001B02346BDE830401BA003F00A
:100B50009DBB0122E9E71D4890ED000A1C48BDEE4F
:100B6000C00A10EE103A90ED000A1A48BDEEC00A15
:100B700010EE102A90ED000A17A0BDEEC00A10EE8C
:100B8000101A03F083FB0020207038BDCAB2C1B236
:100B900015A0009403F07AFB38BD00001800002077
:100BA0000000C8420000FA44145A0020305A0020C5
:100BB000EC0100207F010020040200207B4225641C
:100BC0003A25643A25647D2400000000500100208D
:100BD0004C010020480100207B4325643A25643AFB
:100BE00025647D24000000007B4125643A25643A99
:100BF00025643A25647D2400F0B58DB001210420E0
:100C000002F04CF90121022002F048F901210F0203
:100C1000384602F05BF90E20032606908DF81C6022
:100C200000248DF81F4006A9184800F0EDFD0125AD
:100C30008DF81C6006958DF81F4006A9144800F039
:100C4000E3FD0121384602F04DF90021384602F05B
:100C500049F9089428040B94CDE9090408A8FFF782
:100C6000A9FE8DF8044000948DF805400294049488
:100C7000084C8DF8145069462046FFF7BBFE012151
:100C80002046FFF78DFE0DB0F0BD000000080240C9
:100C9000000402400020014008B504F027FC3B4F4F
:100CA00040F6B83800900A21684605F0F1FF38692F
:100CB000404501DA401C386100F00EFE02F00CF8ED
:100CC00001F058F900F07EFEBDEEC00A10EE100AE9
:100CD00002F0D0FF30B100231A461946184602F040
:100CE000C5FAE0E72A4CD4ED040A94ED000A01F0BD
:100CF00031F800EE100A274DB8EEC00A84ED030A61
:100D0000D5ED040A95ED000A01F062F800EE100A34
:100D1000214EB8EEC00A85ED030AD6ED040A96ED21
:100D2000000A01F093F800EE100A1C4BB8EEC00A5E
:100D300086ED030AD3ED040A93ED000A01F0C4F82E
:100D400000EE100AB8EEC00A83ED030ABDEEC00A39
:100D500010EE103A96ED030ABDEEC00A10EE102A0E
:100D600095ED030ABDEEC00A10EE101A94ED030AC9
:100D7000BDEEC00A10EE100A02F078FAB86C00F06E
:100D80000BFDF86C00F024FD8DE7000098010020B9
:100D9000145A0020305A00204C5A0020685A002073
:100DA000FEE700001CB50121082002F077F84FF49F
:100DB0000060009001208DF8040000218DF80610DD
:100DC00003218DF805108DF807006946014800F0F1
:100DD0001BFD1CBD000C02402DE9F04F87B0002424
:100DE000E8B3E1B3DAB3D3B3491E401E01F0FF0903
:100DF000C7B2521E5B1E0121D6B29DB2084602F058
:100E00004DF80121480602F055F84FF4C050049007
:100E100002208DF814004FF000088DF81680032092
:100E20008DF81500DFF82CA14FF0010B8DF817B0ED
:100E300004A9504600F0E8FC09220B21504600F0BE
:100E40001FFD09220C21504600F01AFD4248C0F84F
:100E50000080016841F001010160021D0AE0FFE726
:100E6000012007B0BDE8F08F641CA4B2642C01D946
:100E70000220F6E71168C907F6D0016882460160D2
:100E80000168016001680160016841F010010160C2
:100E900001680160016801602F4943461C31C1F8B7
:100EA0000080D1F80080DDF840C048EA8C7CC1F8B1
:100EB00000C0D1F800C04CEA07670F60D1F800C04D
:100EC0004CEA09570F600F6847EA06460E600E6845
:100ED0002E430E60016821F0010101604FF6F070B1
:100EE00005E0641CA4B2844201D90320B9E711686B
:100EF000C907F6D18DF80AB08DF80B308DF80CB01B
:100F0000ADF80030ADF804305C46ADF80230ADF815
:100F10000630ADF808308DF80DB0684600F07CF969
:100F20000D481430016841F00201016014208DF871
:100F300018008DF8194003208DF81A008DF81B4019
:100F400006A801F0C5FA01220221504600F0CAF9B4
:100F5000002086E7000002400064004000B588B031
:100F600002A907A8CDE9000106AB05AA04A9002043
:100F700000F05AF80498A0F5807181393FD12149D9
:100F8000012008702049002008702049087020497D
:100F90000870204908709DF809009DF8081000EBC2
:100FA000012000B200EE100A1C48F8EEC00A9FEDC6
:100FB0001A0A80EE801A80ED001A9DF80B009DF849
:100FC0000A1000EB012000B200EE900A1448F8EE7F
:100FD000E00A80EE801A80ED001A9DF80D009DF861
:100FE0000C1000EB012000B24FF47A7190FBF1F08D
:100FF00000EE100A0B48B8EEC00A80ED000A08B0F7
:1010000000BD0000570100205401002056010020BF
:10101000550100205801002000007A4460010020A2
:101020006401002068010020F0B5224CDDE905755F
:1010300004EB0014D4F8B06516F004061670D4F86A
:10104000B02532D0D2080A60D4F8B01501F0020100
:101050001970D4F8B41501F00F013970D4F8B8152F
:101060002970D4F8B815090A6970D4F8B815090CB4
:10107000A970D4F8B815090EE970D4F8BC15297117
:10108000D4F8BC15090A6971D4F8BC15090CA9710A
:10109000D4F8BC15090EE97148B1012804D10648FD
:1010A000016841F020010160F0BD520DCBE702481C
:1010B000001FF5E7006000401064004038B50024D0
:1010C000009108232246214600F014F8054640F618
:1010D000FF7301E0641CA4B2284600F06BF80728F7
:1010E00001D09C42F6D39C4201D3012038BD0020A0
:1010F00038BD0000F0B506462C48059D0468640123
:1011000001D5002008E00468240101D5012003E096
:101110000068C00046D50220254C002704EB0014CF
:10112000C4F88075E9B3F600D4F880753743C4F885
:101130008075D4F8806546EA8101C4F88015D4F83A
:10114000801541EA4201C4F88015D4F8842503F0E3
:101150000F0122F00F02C4F88425D4F884250A4335
:10116000C4F884252979EA796B7941EA0261AA7980
:10117000120442EA03221143C4F88C152978EA7854
:101180006B7841EA0261AA78120442EA0322114311
:10119000C4F88815D4F8801541F00101C4F8801511
:1011A000F0BD01E0FF20FBE77605BDE708640040E5
:1011B00000600040174928B1012810D002281BD038
:1011C0000520704708680A6800F0010002F002027A
:1011D0000243086800F0806042EA106070470868C7
:1011E0000A6800F0010002F002020243086800F001
:1011F000006042EA5060704708680A6800F0010029
:1012000002F002020243086800F0805042EA906057
:101210007047000008640040F0B5827A2F4D01212C
:1012200091402A6842F001022A602C4E1C36326836
:101230008A433260294A047B294B0C32A4B91468D2
:101240008C4314604488C78844EA0744877A03EBD8
:10125000C707C7F840460488878844EA0744877A66
:1012600003EBC707C7F84446047B012C12D114686E
:101270000C431460847A026803EBC4044FEA3242E0
:10128000C4F84026847A426803EBC4034FEA324232
:10129000C3F84426114AC37A121D002B136806D0E6
:1012A0000B4313600D4A0389143213B104E08B43DE
:1012B000F7E713688B4313600389012B02D113688E
:1012C0000B431360407B012802D130680843306033
:1012D000286820F001002860F0BD00000066004092
:1012E00000600040002A426901D00A4300E08A43BE
:1012F000426170477CB5144C00206D46215C295436
:10130000401CC0B20828F9D3294640F20110FFF76B
:10131000D5FE00202118097A2954401CC0B20828A3
:10132000F8D369464FF48170FFF7C8FE00202118FA
:10133000097C2954401CC0B20828F8D3694640F201
:101340000310FFF7BBFE7CBD6A06002030B50346E4
:101350000020012908D10022094C03E0A55C684067
:10136000521CD2B29A42F9D3002908D1044A32322F
:1013700003E0545C6040491CC9B29942F9D330BDC6
:101380006A0600207047000010B501F0E1FF2A480E
:101390002C4C2D4990ED002AD0ED011AD0ED020A17
:1013A000264871EE822A72EE611A90ED000A2448F6
:1013B000B0EE623AB0EE612A90ED001A234A244B57
:1013C00030EE011A234840EEC12A00EEC12A00EE99
:1013D000813A40EE811AC4ED042A81ED042A82ED9F
:1013E000043AC3ED041A90ED051AB0EE620AF1EE6C
:1013F000410A05F067F984ED040A90ED051A91EDB4
:10140000040AF1EE410A05F05DF981ED040A90ED60
:10141000051A92ED040AF1EE410A05F053F982ED46
:10142000040A90ED051A93ED040AF1EE410A05F065
:1014300049F983ED040A10BD085A00207801002004
:1014400074010020145A0020305A00204C5A002009
:10145000685A0020980100201CB50121102001F0DD
:101460001DFD1020009000208DF8040003208DF851
:10147000050001208DF807006946024800F0C4F914
:101480001CBD000000100240F0B5012189B00846E3
:1014900001F010FD0121032001F000FD03258DF86E
:1014A000055002264FF400408DF8046001242B4FB4
:1014B00000908DF806408DF807406946384600F0E8
:1014C000A3F98DF805508DF804608DF806408DF86D
:1014D00007400820224C00906946204600F094F90D
:1014E00001220F21384600F0CBF9012203212046CA
:1014F00000F0C6F902A802F0B3FB00244FF6FF701B
:10150000ADF8084003907507ADF81040ADF80A40FB
:1015100002A9284602F066FB00231A46032128464A
:1015200002F079F905A802F0F9F9ADF81C4005A917
:10153000284602F09DF90121284602F051F90122C6
:101540001146284602F0F2F90021284602F020FB5D
:101550000121284602F04AF909B0F0BD000002401E
:101560000004024030B589B00121022001F0A2FC44
:101570000121084601F092FCC020039003208DF861
:10158000110002208DF8100001208DF81200224C6D
:101590008DF8130003A9204600F036F90222062137
:1015A000204600F06DF902220721204600F068F97C
:1015B000684602F055FB00244FF6FF70174DADF85A
:1015C00000400190ADF80840ADF802406946284659
:1015D00002F008FB00231A460321284602F01BF9FB
:1015E00005A802F09BF9ADF81C4005A9284602F0B9
:1015F0003FF90121284602F0F3F80122114628465E
:1016000002F094F90021284602F0C2FA012128468E
:1016100002F0ECF809B030BD0000024000040040C8
:1016200030B589B00121042001F044FC01210220E1
:1016300001F034FCC020039003208DF8110002203B
:101640008DF8100001208DF81200224C8DF8130047
:1016500003A9204600F0D8F802220621204600F017
:101660000FF902220721204600F00AF9684602F02D
:10167000F7FA00244FF6FF70174DADF800400190C7
:10168000ADF80840ADF802406946284602F0AAFAD3
:1016900000231A460321284602F0BDF805A802F0EF
:1016A0003DF9ADF81C4005A9284602F0E1F80121FA
:1016B000284602F095F801221146284602F036F934
:1016C0000021284602F064FA0121284602F08EF833
:1016D00009B030BD000402400008004030B589B0B8
:1016E0000121082001F0E6FB0121084601F0D6FBAC
:1016F000032003908DF8110002208DF810000120C6
:101700008DF81200224C8DF8130003A9204600F03A
:101710007BF802220021204600F0B2F802220121CB
:10172000204600F0ADF8684602F09AFA00244FF621
:10173000FF70184DADF800400190ADF80840ADF8CD
:1017400002406946284602F04DFA00231A4603215A
:10175000284602F060F805A802F0E0F8ADF81C4059
:1017600005A9284602F084F80121284602F038F83D
:1017700001221146284602F0D9F80021284602F03D
:1017800007FA0121284602F031F809B030BD000007
:1017900000000240000C004070B54FF47A750B4C0D
:1017A0006E0058B101280FD13146204602F0E8F909
:1017B00029462046BDE8704002F0E4B9294620469B
:1017C00002F0DEF93146F4E770BD00000000014090
:1017D00070B54FF47A750B4C6E0058B101280FD1DB
:1017E0003146204602F0D0F929462046BDE8704037
:1017F00002F0CCB92946204602F0C6F93146F4E79A
:1018000070BD000000000140F0B5002201274FF03C
:10181000030C0B6807FA02F52B40AB422CD106688B
:1018200053000CFA03F4A64306600E79D0F800E0EA
:101830009E4046EA0E0606600E79012E01D0022E69
:1018400012D18668A64386604E79D0F808E09E40A3
:1018500046EA0E0686604668AE43466045688E7965
:101860009640B6B235434560C568A543C560CC799E
:101870009C40C3681C43C460521C102AC9D3F0BDED
:101880004B07DB0E9A40C90810B500EB8100016AD6
:101890000F249C40A1430162016A1143016210BD03
:1018A000418370470183704710B50A4C01460723F6
:1018B00001222046FFF7C4F82046FFF7FBF802217B
:1018C0002046FFF790F80028F9D02046BDE81040E8
:1018D000FFF786B80020014010B502202DED048BE3
:1018E00001F062FB404200EE100A0320B8EEC09AFD
:1018F00001F05AFB404200EE100A0420F8EEC08AC4
:1019000001F052FB00EE100A0520B8EEC08A01F08B
:101910004BFB00EE100A9FED181A1848F8EEC01A9B
:1019200069EE010A90ED000A154820EE802AD0EDFC
:10193000000A1448C2EE202A28EE812A22EE002A4C
:10194000C0ED002AC2EE202A28EE012A0E4821EE20
:10195000811A22EE002A21EE000A80EE201AC0ED44
:10196000002A0A48C2EE202AC0ED002A084880ED6D
:10197000001ABDEC048B10BD0000C84270010020AD
:101980006C010020145A0020305A00204C5A0020CC
:10199000685A00202DE9F04100250E4607462C46E6
:1019A00008E03846FFF780FF0544052003F050FDAE
:1019B000641CE4B2B442F4D3B5FBF6F080B2BDE8E7
:1019C000F081000010B50820FFF76EFFFEF7A4FDC0
:1019D0009FED0B1B53EC112BFEF71BFD9FED0A1B1C
:1019E00053EC112BFEF715FD9FED091B53EC112B4A
:1019F000FEF70FFDFEF7B0FD00EE100A10BD00006F
:101A0000EC51B81E85EB09400000000000002640A4
:101A1000000000000000303FFEE7000070B50D4CF4
:101A20000025C4F8A4520C48016821F4403101603B
:101A3000016841F480310160C4F8A052012004F52E
:101A4000287403F021FD0120606003F01DFD656036
:101A500070BD000000804042000402401CB501211E
:101A6000022001F01BFA4FF44070012400908DF821
:101A7000044000208DF8060003208DF805008DF845
:101A8000074069460448FFF7BFFE0448C0F8A44277
:101A9000C0F8A0421CBD000000040240008040428B
:101AA00070B50D4C0026C4F8A4620C48016821F4FE
:101AB00040310160016841F4803101600125C4F8C2
:101AC000A052284604F5287403F0DEFC656001206E
:101AD00003F0DAFC666070BD008040420004024002
:101AE0002DE9F047814618480025016821F440316E
:101AF000016001680160154E2C462F464FF0010829
:101B0000C6F8A472012003F0BFFCC6F8A4826806E0
:101B1000D6F82012000E11B140F0010501E020F0CE
:101B20000105012003F0B0FC641CE4B2082CE7D3EB
:101B3000B9F1000F04D0FFF7B3FF2846BDE8F087E6
:101B4000FFF76CFFF9E7000000040240008040420C
:101B500070B50D46044600F01BF8204600F0B0F8C2
:101B600000F05EF8284600F0ABF800F059F800F0FD
:101B70000FF844F0010000F0A3F800F051F8012044
:101B8000FFF7AEFF044600F02BF8204670BD0000C2
:101B900070B51148016821F440310160016841F4D9
:101BA000803101600D4C0120C4F8A002D4F820124D
:101BB00000290FD0C4F8A40203F066FC0025C4F885
:101BC000A052D4F82002002804D1012003F05CFCCC
:101BD000C4F8A45270BD00000004024000804042DE
:101BE0000D4810B5016821F440310160016841F4ED
:101BF00080310160094C0020C4F8A402C4F8A0029E
:101C0000012004F5287403F03FFC0120606020608F
:101C1000BDE8104003F038BC0004024000804042A0
:101C200070B512480024016821F440310160016858
:101C300001600F4D0126C5F8A062304603F024FC78
:101C4000C5F8A46207E0641CE4B2322C03D9FFF7A4
:101C5000C7FF002070BD012003F016FCD5F820025C
:101C60000028F0D1C5F8A402012070BD0004024094
:101C7000008040422DE9F0411D4614460F46804643
:101C8000069EFFF765FF621CFF21C4F1080301FAFD
:101C900002F22B445B1ED9400A43C5F108018E4075
:101CA000D2B2F1B2C4F10703D940104040EA0102B8
:101CB0003946404600F034F80120BDE8F0810000CC
:101CC0002DE9F04105461448016821F440310160D6
:101CD000016841F480310160104E0027C6F8A472FB
:101CE0003C464FF00108E809C6F8A0026806050E58
:101CF000012003F0C9FBC6F8A482012003F0C4FB55
:101D0000C6F8A472012003F0BFFB641CE4B2082CE7
:101D1000E9D3BDE8F08100000004024000804042A9
:101D200070B515460E460446FFF732FF2046FFF712
:101D3000C7FFFFF775FF3046FFF7C2FFFFF770FFE1
:101D40002846FFF7BDFFFFF76BFFFFF749FF0120B4
:101D500070BD0000174830EEC00A1749D0ED080AE0
:101D6000174A91ED001A70EE600A144960EE810A7C
:101D700091ED001A41EE000A90ED071A70EE810A0B
:101D800010EE901AC0ED070A914203DDDFED0D0A57
:101D9000C0ED070A10EE901A0B4A914203D9DFED0D
:101DA0000B0AC0ED070A80ED080ABDEEE00A10EE4E
:101DB000100A7047980100204C01002050010020BB
:101DC0000040834600408346004083C6004083C6EF
:101DD000174830EEC00A1749D0ED0B0A174A91EDAB
:101DE000001A70EE600A144960EE810A91ED001A43
:101DF00041EE000A90ED0A1A70EE810A10EE901A78
:101E0000C0ED0A0A914203DDDFED0D0AC0ED0A0ABA
:101E100010EE901A0B4A914203D9DFED0B0AC0ED88
:101E20000A0A80ED0B0ABDEEE00A10EE100A7047B8
:101E3000980100204C010020500100200040834602
:101E400000408346004083C6004083C6174830EEFA
:101E5000C00A1749D0ED0E0A174A91ED001A70EE2C
:101E6000600A144960EE810A91ED001A41EE000A01
:101E700090ED0D1A70EE810A10EE901AC0ED0D0A69
:101E8000914203DDDFED0D0AC0ED0D0A10EE901A50
:101E90000B4A914203D9DFED0B0AC0ED0D0A80ED2C
:101EA0000E0ABDEEE00A10EE100A704798010020FD
:101EB0004C01002050010020004083460040834632
:101EC000004083C6004083C6174830EEC00A174959
:101ED000D0ED110A174A91ED001A70EE600A14490C
:101EE00060EE810A91ED001A41EE000A90ED101AA1
:101EF00070EE810A10EE901AC0ED100A914203DDD7
:101F0000DFED0D0AC0ED100A10EE901A0B4A914257
:101F100003D9DFED0B0AC0ED100A80ED110ABDEE0A
:101F2000E00A10EE100A7047980100204C010020D2
:101F3000500100200040834600408346004083C695
:101F4000004083C61CB50121042000F0A7FF20201B
:101F5000009000208DF8040003208DF8050001207A
:101F60008DF8070069460248FFF74EFC1CBD0000D3
:101F70000008024010B503F09DF9012805D104497D
:101F800002480A6802608988818010BD1002002022
:101F9000160200201CB50121082000F07FFF4FF43D
:101FA0006040009001208DF8040000218DF806109B
:101FB00003218DF805100B4C8DF80700694620466B
:101FC000FFF722FC4FF480412046FFF76BFC4FF4F3
:101FD00000512046FFF766FC4FF400412046FFF712
:101FE00061FC1CBD000C0240BC2801D3012210E0A2
:101FF000622801D302220CE02A2801D3032208E040
:10200000142801D3042204E00A2801D3052200E0A9
:1020100006221A21D020FFF783BE10B504464FF4E4
:102020007A70844201D9044602E0042C00D20424D0
:10203000B0FBF4F0401EC2B21921D020FFF770FEB1
:102040006008BDE81040FFF7CFBF10B580226B21BC
:10205000D020FFF765FEC82003F0FAF900226B21BB
:10206000D020FFF75DFE012000F03AF8002000F0DC
:102070002EF83220FFF7D1FF00223821D020FFF7C1
:102080004FFE00226A21D020FFF74AFE00222321C2
:10209000D020FFF745FE80223721D020FFF740FEF9
:1020A0007521D020FFF754FD682801D0012010BD14
:1020B00001226B21D020FFF733FE00226C21D020BB
:1020C000FFF72EFE3220FFF7A8FF002010BD08B555
:1020D0000223009004221C21D020FFF7CBFD08BD75
:1020E00008B50223009004221B21D020FFF7C2FD77
:1020F00008BD000008B503F0F9F90D4C4FF49675D2
:1021000000900A21684604F0C3FD2068A8420ADA5C
:10211000401C2060606820612089A082D4F80A00F9
:10212000E061E089208400F005F800F047F8E8E776
:102130000002002070B53C21D020FFF709FD0446C5
:102140003B21D020FFF704FD04EB00201A4C3E2178
:102150002080D020FFF7FCFC05463D21D020FFF772
:10216000F7FC05EB002060804021D020FFF7F0FC59
:1021700005463F21D020FFF7EBFC05EB002000B225
:10218000A4F10A01A0800968B1F5967F12DB04F181
:1021900018032188198062885A8098809B1F1D88A7
:1021A000491B21805988511A61809988401A00F58D
:1021B0008040A08070BD00000A020020D0B54421FC
:1021C000D020FFF7C5FC04464321D020FFF7C0FC18
:1021D00004EB0020204C46212080D020FFF7B8FCE3
:1021E00006464521D020FFF7B3FC06EB00206080B7
:1021F0004821D020FFF7ACFC06464721D020FFF74E
:10220000A7FC06EB002001B2221FA18010684FF44A
:102210009673124E124F984203DA012030603870E4
:1022200018E0984205D10020387040F22D1033603C
:102230001060094B20881233188062885A80998078
:102240009B1F1E88801B20805888101A60809888E9
:10225000081AA0802846D0BD0402002034000020C7
:1022600044010020FEE700002DE9FC5F01210F2062
:1022700000F014FE01248DF8044000258DF806506E
:102280004FF480768DF8055000968DF8074069462A
:102290002448FFF7B9FA8DF806508DF80440DFF8AE
:1022A00088A04FF4E0478DF8055000978DF807405F
:1022B00069465046FFF7A8FA8DF804408DF806509D
:1022C000DFF868B041F201088DF80550CDF80080C4
:1022D0008DF8074069465846FFF796FA8DF8044096
:1022E0008DF806508DF805508DF80740104C4FF4CE
:1022F000A059CDF8009069462046FFF785FA31468F
:102300000848FFF7CDFA39465046FFF7C9FA41466B
:102310005846FFF7C5FA49462046FFF7C1FABDE81F
:10232000FC9F000000000240000402400008024040
:10233000000C02402DE9F041884607468AB0012191
:10234000022000F0C3FD0121042000F0A7FD394E5A
:10235000032206213046FFF793FA03220721304675
:10236000FFF78EFA032208213046FFF789FA03228D
:1023700009213046FFF784FA4FF47070059002206F
:102380008DF8180003208DF8190000248DF81A40EC
:1023900001258DF81B5005A93046FFF735FA264E6A
:1023A000ADF81C800897ADF82450ADF81E4007A981
:1023B000304601F017FC6020ADF80000ADF8025087
:1023C000ADF80C406946304601F0B8FA694630462F
:1023D00001F0F0FA6946304601F040FB69463046AC
:1023E00001F08AFB0121304601F00AFA082130464B
:1023F00001F0DAFA0821304601F026FB08213046C8
:1024000001F074FB0821304601F0B0FB0121304699
:1024100001F0DCF9084834300460001D0460001D40
:102420000460001D04600121304601F0DFF90AB0AC
:10243000BDE8F081000802400004014030EE202A8F
:102440001F4832EE012A72EE212AB5EE002A22EE52
:10245000823ADFED1A2A23EE223ABDEEC33A13EE9A
:10246000101A30EE603A4183B1EE400A33EE013A81
:1024700030EE600A33EE613A30EE010A23EE023AA2
:1024800030EE210A23EE223A20EE020ABDEEC33AD4
:1024900013EE101A81830B49D1ED000A0A4991ED20
:1024A000001A30EE811AC0EE010A20EEA20ABDEE3B
:1024B000C00A10EE101AC1837047000000007A4471
:1024C0006A06002078010020740100207047000097
:1024D00030B50F23C27801780125FAB1144A126889
:1024E00001F1E02102F4E062C2F5E062C2F30722EA
:1024F000C2F10404D3404278A24084781C401443C3
:10250000220181F80024007800F01F018D4040096D
:10251000800000F1E020C0F8005130BD01F01F0044
:1025200085404809800000F1E020C0F8805130BDAE
:102530000CED00E0024908430249086070470000C2
:102540000000FA050CED00E010B40021084B0A462B
:10255000002003EBC004401CC0B262548028F8D3B2
:10256000491CC9B20829F3D310BC00F0B7B8000069
:102570002C02002010B57F2816D83F2914D8072335
:10258000A3EBD10301F00701C1F107040121A14030
:10259000064CDBB204EBC000002AC25CC9B201D019
:1025A0000A4300E08A43C25410BD00002C02002000
:1025B0007CB50121082000F071FC01268DF8046033
:1025C0000024F0208DF8064000908DF805408DF82D
:1025D000074069463F48FFF717F90121080700F057
:1025E00069FC012000F054FC002000F0CFFC00202A
:1025F00000F04EFC384DC5F89442642005F5257571
:1026000002F026FF2E600021AE2000F029F9002103
:10261000D52000F025F90021502000F021F90021FB
:10262000A82000F01DF900213F2000F019F9002139
:10263000D32000F015F90021084600F011F900211F
:10264000402000F00DF900218D2000F009F9002153
:10265000142000F005F90021202000F001F90021EC
:10266000022000F0FDF80021A12000F0F9F800217F
:10267000C02000F0F5F80021DA2000F0F1F8002188
:10268000122000F0EDF80021812000F0E9F800218F
:10269000EF2000F0E5F80021D92000F0E1F800215A
:1026A000F12000F0DDF80021DB2000F0D9F8002156
:1026B000302000F0D5F80021A42000F0D1F800214E
:1026C000A62000F0CDF80021AF2000F0C9F8FFF7F8
:1026D0003BFF7CBD000C02400080414270B5104EB3
:1026E000002505F1B000C0B2002100F0B9F80021CA
:1026F000084600F0B5F80021102000F0B1F80024E1
:1027000006EBC4000121405D00F0AAF8641CE4B2AD
:10271000802CF5D36D1CEDB2082DE2D370BD000006
:102720002C0200202DE9F04F203A98460D468346B2
:10273000894602F0FF0A00262EE0B8F10C0F08D0FF
:10274000174901EB0A100027845D200607D5099A76
:1027500008E014490AEB4A0001EB8000F3E709980E
:1027600090B1002229465846FFF704FF6D1C600611
:10277000EDB2040EA5EB0901414507D10BF10100B3
:102780004D4600F0FF0B05E00122EBE77F1CFFB296
:10279000082FDAD3761CF6B24645CED3BDE8F08FCB
:1027A00008810008947C00082DE9FF4F81B00027C4
:1027B000DDF838B01D46924680463C464FF0010990
:1027C0004FEA5B0627E0281B401EC1B20A2002F038
:1027D000CBFEBAFBF0F00A21B0FBF1F201FB1200D4
:1027E00027B9691E8C4201DA48B101273030C2B2E4
:1027F00006FB0480C0B25B46CDF8009006E006FB05
:102800000480C0B25B462022CDF800900299FFF709
:1028100089FF641CE4B2AC42D5D305B0BDE8F08FAB
:10282000F8B516460D460446012714E07A2C02D965
:1028300000241035EDB23A2D03D900242546FFF7C8
:1028400083FE009732780C2329462046FFF76AFF63
:102850000834E4B2761C30780028E7D1F8BD0000D7
:1028600030B500230E4A012411B1C2F8904201E0B4
:10287000C2F890320021C2F89C32050602D5C2F897
:10288000984201E0C2F89832C2F89C424006491CC6
:10289000000EC9B20829EED3C2F8904230BD000044
:1028A000008041420020044A01461154401CC0B23D
:1028B0000928FAD3704700002C0600202DE9F843C0
:1028C00001250746ADF80050204800264670ADF8B7
:1028D00000501F4C80464FF6FF792DE0BDF80000F8
:1028E000384202D0C4F8845201E0C4F88462102057
:1028F00002F0CAFDC4F88C52052002F0C5FDC4F8F0
:102900008C62052002F0C0FDC4F88C52102002F049
:10291000BBFDD4F8000230B198F80110BDF80020DA
:10292000114388F80110102002F0AEFDBDF8001030
:1029300009EA4100ADF80000BDF80000FF28CDD93C
:10294000BDE8F843102002F09FBD00002C060020D7
:102950000000424270B5FFF7A5FF00F00BF90B48ED
:102960000B4AB0F803400A48083244800020012591
:1029700012F8103000F101005B1E05FA03F121424C
:10298000C0B202D01028F3D3002070BD2C06002066
:102990003C00002010B5154C0020C4F8880210201F
:1029A00004F5227402F070FD0120FFF787FF432039
:1029B000FFF784FF0020FFF781FF0120FFF77EFF74
:1029C0000020FFF77BFF0020FFF778FF0020FFF7D4
:1029D00075FF0020FFF772FF0020FFF76FFF012057
:1029E0002060BDE81040102002F04EBD00004242C1
:1029F00010B5154C0020C4F88802102004F522748C
:102A000002F042FD0120FFF759FF4320FFF756FF78
:102A10000020FFF753FF0020FFF750FF5A20FFF779
:102A20004DFF5A20FFF74AFF5A20FFF747FF5A2071
:102A3000FFF744FF5A20FFF741FF01202060BDE867
:102A40001040102002F020BD000042427CB5012160
:102A5000102000F023FA00258DF8045003200124F3
:102A60008DF805000B4E00948DF8074069463046FE
:102A7000FEF7CAFE8DF804400E208DF80650009037
:102A80008DF805508DF8074069463046FEF7BCFECC
:102A90007CBD00000010024010B5FFF75BFF00EEA8
:102AA000100A26482B4BB8EE400A012280ED000A9E
:102AB0002348C17900EE901A2249F8EE600AC1ED70
:102AC000000A017A00EE901A1F49F8EE600AC1ED83
:102AD000000A417901EE101A1C49B8EE411A81ED45
:102AE000001A807910EE101A01EE100A1848B1F1A0
:102AF000814FB8EE411A80ED001A174801D10178D4
:102B0000D1B15968002916D010EE901A134B994292
:102B100011DA017800290ED111490968B1F5967FC3
:102B200009DB10490270002008700F4908700F4936
:102B300008700F49087010BD5A60E5E79001002049
:102B40002C06002080010020840100208801002044
:102B50008C0100203C000020540100200000EC42C9
:102B600000020020560100205501002057010020DE
:102B7000580100202DE9FC4100268DF80060012558
:102B8000ADF80450224CC4F88862224F3878FFF721
:102B900095FE7878FFF792FE02208DF800001E4F18
:102BA0004FF6FF782CE0ADF804501DE0C4F88C52CD
:102BB000052002F069FCC4F88C62052002F064FC78
:102BC000C4F88C52D4F8000240B19DF80000BDF862
:102BD0000410385C08439DF800107854BDF80410C8
:102BE00008EA4100ADF80400BDF80400FF28DDD973
:102BF000102002F049FC9DF80000401C8DF80000F8
:102C00009DF800000928CED3C4F88852BDE8FC81A5
:102C1000000042423C0000202C06002010B500F0CD
:102C20000DF800F00BF800F009F8FFF7B3FE00F024
:102C300027F8BDE81040FFF7DBBE000010B50F4CD1
:102C40000020C4F88802102004F5227402F01CFC55
:102C50000120FFF733FE4220FFF730FE0020FFF790
:102C60002DFE0020FFF72AFE0020FFF727FE01209F
:102C70002060BDE81040102002F006BC0000424277
:102C800010B5144C0020C4F88802012004F5227409
:102C9000FFF714FE4420FFF711FE0020FFF70EFEA1
:102CA0000120FFF70BFE0320FFF708FE0020FFF7CF
:102CB00005FE0020FFF702FE0020FFF7FFFD0020C9
:102CC000FFF7FCFD01202060BDE81040102002F05D
:102CD000DBBB0000000042422DE9F0035748D0ED75
:102CE000000A9FED570A574870EE600AFDEEE00AB1
:102CF00010EE903AD0ED000A534870EE600AFDEEF7
:102D0000E00A10EE902AD0ED000A6FF01300824224
:102D100030EE600ABDEEC00A10EE101A02DD142A71
:102D200000DA0022834202DD142B00DA0023814204
:102D300002DD142900DA0021444E9FED450A2AB92C
:102D4000D6ED000A80EE801A86ED001ADFF80491B5
:102D500029B9D9ED000A80EE801A89ED001A3E48A3
:102D60003F4C3E4D006894ED000AF1EE040AA84283
:102D700002D130EE200A04E03A4DA84203D130EEF1
:102D8000600A84ED000A384F384D4FF0000C4FF0C8
:102D90000108B84202D1C5F848C004E0344FB84237
:102DA00001D1C5F84880334FB84202D1C5F84CC0B4
:102DB00004E0B0F1834F01D1C5F84C8094ED000AD6
:102DC000B5EEC00AF1EE10FA03D29FED2B0A84EDA6
:102DD000000A00EE102A9FED2B3A284AF8EEC00AAE
:102DE00000EE103AF8EEC01A00EE101AB8EEC01A53
:102DF00094ED000AC0EE032A20EE802A61EE801ACC
:102E00009FED210ADFED1E0A21EE000A22EE202AA4
:102E100061EEA01A22EE800ADFED1C2A20EE201AB5
:102E200082EE220A89ED001AC1EEA20A86ED000A9E
:102E3000C2ED000ABDE8F003FEF7A6BA800100204B
:102E40000000004384010020880100206001002070
:102E50009A99993F680100209001002000003041BC
:102E6000480100200000104100005041980100205E
:102E7000000060410000704100000000640100207B
:102E80000000003C0000FA43DB0F493F00007A4499
:102E9000014908627047000000000E42044A002900
:102EA000116801D0014300E08143116070470000C8
:102EB00030380240044A0029116801D0014300E083
:102EC000814311607047000040380240044A0029E5
:102ED000116801D0014300E0814311607047000098
:102EE00044380240044A0029116801D0014300E03F
:102EF00081431160704700002438024070B5204BB8
:102F00001968204C11F00C0104D06610042903D07C
:102F1000082903D004601BE0066019E0184A121F5C
:102F20001168C1F38055116801F03F0115B1B6FB7E
:102F3000F1F101E0B4FBF1F114681268C4F38814F4
:102F40006143C2F30142521C5200B1FBF2F1016035
:102F500019680F2202EA11110B4A545C0168E14022
:102F600041601C68072505EA9424145D21FA04F4E5
:102F700084601B6805EA5333D25CD140C16070BDE8
:102F8000083802400024F400C00000200549002257
:102F90000A700A70012802D0042801D105200870A7
:102FA00070470000703802400021022807D0032833
:102FB0000BD004280BD005280BD0002070474FF011
:102FC0008042506A516200B27047044A02E0044AEB
:102FD00000E0044A1068116000B270472404004009
:102FE00024080040240C00400E4A82EC020AC2E988
:102FF00002018900414301EE901A0B4882ED041A48
:10300000F8EEE11AC0ED001ADFED081A084821EECB
:10301000211A80ED001A074880ED000A0648C0ED2D
:10302000000A7047845A00206C010020DB0F4940E1
:1030300070010020740100207801002011219FED13
:10304000041A3320DFED030A9FED030AFFF7CCBF1C
:10305000CDCCCC3D2731083ECDCC4C3E2DE9F043C4
:103060008946804601218BB00846FFF72FFF0121DA
:103070001020FFF713FF4E4F012209213846FEF7BB
:10308000FFFB02258DF80450032628028DF8056009
:10309000002400908DF806408DF8075069463846A8
:1030A000FEF7B2FB01220B213846FEF7E9FB8DF853
:1030B0000450A8028DF8056000908DF806408DF848
:1030C000075069463846FEF79FFB01220D2138461E
:1030D000FEF7D6FB8DF8045028038DF805600090AC
:1030E0008DF806408DF8075069463846FEF78CFB90
:1030F00001220E213846FEF7C3FB8DF80450680309
:103100008DF8056000908DF806408DF807506946EF
:103110003846FEF779FB274DADF81C900126CDF817
:103120002080ADF82460ADF81E4007A9284600F0C5
:1031300059FD6020ADF80800ADF80A600494ADF8C0
:103140001440ADF8184002A9284600F0F7FB02A988
:10315000284600F02FFC02A9284600F07FFC02A9B7
:10316000284600F0C9FC0121284600F049FB08214F
:10317000284600F019FC0821284600F065FC0821CB
:10318000284600F0B3FC0821284600F0EFFC01219E
:10319000284600F01BFB40F2DC506863A863E8633C
:1031A00028640121284600F021FB0BB0BDE8F08324
:1031B00000100240000001400CB500222749009297
:1031C0000192086840F4803008604FF4A04308681A
:1031D00000F4003001900098401C0090019810B954
:1031E00000989842F3D10868800334D501200190FB
:1031F0001A484030026842F0805202601848026863
:1032000042F44042026015480830026802600268D9
:1032100042F400420260026842F4A0520260031FBE
:10322000104A1A600A6842F080720A600A689201C5
:10323000FCD50D4940F205720A60016821F00301D6
:103240000160016841F0020101600168C1F3810180
:103250000229FAD10CBD01920CBD000000380240D9
:103260000070004008544007003C02402DE9F05F28
:10327000314E002401259A4690468946002804DDF7
:10328000C6F8B442C6F8B05203E0C6F8B452C6F865
:10329000B042DFF8A8B0DBF80010484302F060F954
:1032A0000146274800F072FC264FB9F1000F04DDFB
:1032B000C7F88042C6F8B85203E0C7F88052C6F893
:1032C000B842DBF804105E4609FB01F002F048F951
:1032D000DFF86C900146484600F056FC1A48B8F1F9
:1032E000000F04DDC0F8B042C0F8A85203E0C0F8F7
:1032F000B052C0F8A842B16808FB01F002F030F902
:103300000146484600F03EFC1048BAF1000F04DDCB
:10331000C0F8A042C7F8B05203E0C0F8A052C7F806
:10332000B042F1680AFB01F002F01AF90146484682
:10333000BDE8F05F00F024BC00804042980100200E
:103340000004014000004142008041420000404230
:103350003148DFED301A90ED002AB4EEC02AF1EECC
:1033600010FA02D232EE212A02E004DD32EE612AA6
:1033700080ED002A01E080ED000A90ED012AB4EE14
:10338000E02AF1EE10FA02D232EE212A02E004DD48
:1033900032EE612A80ED012A01E0C0ED010A90EDD4
:1033A000022AB4EEC12AF1EE10FA02D272EE211A0C
:1033B00002E004DD72EE611AC0ED021A01E080ED58
:1033C000021ADFED181AB5EEC00A144AF1EE10FA2F
:1033D000134B06D10168914203DA994201D2C0ED44
:1033E000001AF5EEC00AF1EE10FA06D141689142DA
:1033F00003DA994201D2C0ED011AB5EEC01AF1EE1E
:1034000010FA06D18168914203DA994201D2C0EDE7
:10341000021A70470AD7A33C085A0020CDCC4C3D75
:10342000CDCC4CBD000000004FF0E021042808691D
:1034300003D020F004000861704740F00400FAE770
:1034400010B504F0CBF9012803D0BDE8104003F01B
:10345000B9BE10BD124810B5016841F47001016099
:103460001048016841F0010101600E4A0021083254
:10347000116002680C4B1A400260031D0B4A1A606F
:10348000026822F48022026006480C300160FFF7D7
:1034900093FE03494FF000608039086010BD0000C2
:1034A00088ED00E000380240FFFFF6FE10300024F7
:1034B00070B5048C24F001040484058B048C4FF651
:1034C000FF7606EA0313134325F0F3052B4324F09C
:1034D0000A020A4342F001010383018470BDF0B582
:1034E000048C24F010040484078B068C4FF6FF74C0
:1034F00004EA011527F4734704EA0331394304EA67
:1035000002220A4326F0A001294341F01001028360
:103510000184F0BD2DE9F0478D4800248169B1F5A3
:10352000C86F11DD8B490A7872B98B4A1268B2F5FF
:10353000967F09DB01220A7088490C7088490C705B
:1035400088490C7088490C7080460078874D0006C9
:1035500042F20F764FF4FA772DD40221284600F07C
:103560007BF940B30221284600F03DF998F80000AD
:10357000400628463DD500F067F980B2A8F806005D
:10358000B8F804104246884201D2566300E0546302
:10359000401A516B08445061516A401A00D54042AC
:1035A000B84200DD51615069506288F80040002146
:1035B000284600F0F3F998F8010000063AD40421F7
:1035C000284600F049F9A8B30421284600F00BF979
:1035D00098F80100400628464AD500F037F980B235
:1035E000A8F80A00B8F80810424688420ED296633E
:1035F0000DE000F029F90146A8F8041098F8001031
:1036000041F0400188F800100221D1E79463401A8C
:10361000916B08449061916A401A00D54042B842CB
:1036200000DD91619069906288F801400021284690
:1036300000F000FA98F8020000063AD40821284663
:1036400000F00AF9A8B30821284600F0CCF898F851
:103650000200400628464BD500F0FAF880B2A8F8E0
:103660000E00B8F80C10424688420ED2D6630DE028
:1036700000F0ECF80146A8F8081098F8011041F0A5
:10368000400188F801100221D1E7D463401AD16BC0
:103690000844D061D16A401A00D54042B84200DDEA
:1036A000D161D069D06288F802400021284600F03C
:1036B00013FA98F80300C146000647D410212846A3
:1036C00000F0CAF8002841D01021A846284600F092
:1036D0008AF899F803004D4640062BD5404600F085
:1036E000B9F880B26882298A88420ED22E640DE031
:1036F00000F0AEF80146A8F80C1098F8021041F05E
:10370000400188F802100221D0E72C64401A296C8D
:1037100008442862296B401A00D54042B84200DDB7
:103720002962286A2863EC7000214046BDE8F04712
:1037300000F012BA4446404600F08CF82882E8783F
:10374000022140F04000E8702046EFE7BDE8F08736
:1037500064000020560100200002002055010020D6
:1037600054010020570100205801002000000140B2
:103770000248018A21F001010182704700000140E6
:103780004FF08040018A018A21F0010101827047D7
:1037900003480188018821F0010101807047000081
:1037A0001004004003480188018821F001010180D4
:1037B000704700001008004003480188018821F08C
:1037C0000101018070470000100C004000290188B1
:1037D00002D041F0800101E021F0800101807047BA
:1037E000C94301827047C94301827047002901889B
:1037F00002D041F0010101E021F001010180704798
:10380000002930F8441F02D041F4004101E0C1F327
:103810000E010180704770B50589048B068C25F078
:1038200007050D434FF6FC410C4040F201110C43DB
:103830004FF6FF7101EA031126F0220611433143CE
:1038400005810483018470BD406B7047806B7047B5
:10385000C06B7047006C704702460020138A928943
:103860000B4202EA010202D0002A00D00120704778
:103870002DE9F0410C460E884988A2882389054627
:1038800016B3042E28D0082E2E8C4FF6FF702BD0A6
:1038900026F480562E84AF8B2E8C00EA022200EA9A
:1038A000013127F473473A4300EA0330104326F40A
:1038B00020420A4342F48051A8832984E1882846A3
:1038C000BDE8F04100F082B9FFF7F2FDE18828463B
:1038D000BDE8F04100F05EB9FFF701FEE18828463F
:1038E000BDE8F04100F05EB926F480762E84AF8BFF
:1038F0002E8C00EA012100EA0310104327F0F307A1
:10390000384326F420620A4342F48071A883298454
:10391000E1882846BDE8F04100F050B9002101805F
:10392000418001228280C18001817047002A828902
:1039300001D00A4300E08A438281704730B5028C8F
:1039400022F001020284028C8388048B22F002029E
:1039500024F073050C882C438D8915434A882A432B
:103960000C4DA84202D00C4DA8420DD122F0080502
:10397000CA8923F440732A4322F004058A882A4323
:103980000D8A1D434B8A2B438380048389684163DE
:10399000028430BD0000014000040140028C22F08E
:1039A00002020A4302847047028B22F008020A4393
:1039B0000283704770B5028C22F010020284028CE0
:1039C0008388048B0D8824F4E6464FF6FF7404EADE
:1039D000052535438E8922F0200204EA0616164397
:1039E0004A8804EA02123243104EB04202D0104E0E
:1039F000B04215D122F08006CA8923F4406304EA5C
:103A00000212324322F040068A8804EA021232434C
:103A10000E8A04EA86061E434B8A04EA8303334374
:103A20008380058389688163028470BD0000014042
:103A300000040140028C4FF6FF7322F0200203EADB
:103A40000111114301847047028B4FF6FF7322F47A
:103A5000006203EA012111430183704770B5028CB3
:103A600022F480720284028C8388848B0D8824F077
:103A7000730425438E894FF6FF7422F4007204EA22
:103A8000062616434A8804EA02223243104EB04208
:103A900002D0104EB04215D122F40066CA8923F438
:103AA000405304EA0222324322F480668A8804EA00
:103AB000022232430E8A04EA06161E434B8A04EAA7
:103AC00003133343838085838968C163028470BD97
:103AD0000000014000040140028C4FF6FF7322F405
:103AE000007203EA0121114301847047828B22F0A6
:103AF00008020A438283704770B5028C22F4805218
:103B00000284058C8288838B0C8823F4E6464FF66A
:103B1000FF7303EA0424344325F400568D8903EA35
:103B2000053535434E8803EA06362E43084DA84234
:103B300002D0084DA84205D122F480450A8A03EA42
:103B400082122A438280848389680164068470BD5E
:103B50000000014000040140028C4FF6FF7322F484
:103B6000005203EA0131114301847047828B4FF602
:103B7000FF7322F4006203EA01211143818370473D
:103B80004163704781637047C16370470164704748
:103B900041627047028B22F00C020283028B0A43BF
:103BA00002837047028B22F440620283028B4FF63D
:103BB000FF7303EA01210A4302837047828B22F0DC
:103BC0000C028283828B0A4382837047828B22F4A9
:103BD00040628283828B4FF6FF7303EA01210A431E
:103BE0008283704730B50288164C174DA0420DD025
:103BF000A8420BD0B0F1804F08D0144B984205D0AA
:103C0000134B984202D0134B984203D122F0700319
:103C10004A881A43104B984206D0104B984203D062
:103C200022F440730A891A4302804A68C2620A88F1
:103C30000285A04201D0A84201D1897A01860121E2
:103C4000818230BD000001400004014000040040BA
:103C500000080040000C004000100040001400402C
:103C60004FF0FF314160002101800181418081726C
:103C700070470000142809DB1448D0F8100228B15E
:103C800013480078012801D000207047114A012014
:103C900000211160121F1160121F1160121F1160AC
:103CA0000D4AC2F8B412C2F8B0120C4BC3F880121D
:103CB000C2F8B8120A4AC2F8A812C2F8B012C3F881
:103CC000B012084AC2F8A012704700000000424239
:103CD0004401002040040140008040420000414275
:103CE00000804142000040422DE9F04140F2255160
:103CF0002DED048B724800F00BFA002870D070484C
:103D0000001D00886F490968B1F5967F68DB0121C5
:103D100000246D4D41280ED12A79412A0BD16B4ADE
:103D2000137843B96A4B1C706A4B1C7011706A4A55
:103D300014706A4A1470C3B2694A6A4FDFF8A8C1A6
:103D40006A4E2B714B2808D0492808D04A2806D043
:103D500036782EB1012E0BD01EE031700CE034709D
:103D6000A0F14106072E26D9082814DC137013E0B1
:103D7000432809D047280BD03C708CF800404128DC
:103D800019D0452817D006E03C708CF8001002E0EE
:103D900039708CF8004014709FED550A554A9FED1C
:103DA000569A564E58280AD059280DD07B2818D03C
:103DB0007D281CD00EE0A0F140061670ECE7D6ED91
:103DC000000A30EE800A03E0D6ED000A30EEC00AA9
:103DD00086ED000A6878012804D0022809D060E046
:103DE00068E06970A8781354401CA87059E002205C
:103DF0006870D078502806D05078232848D0A8780A
:103E0000E87090462AE03E48017041E0A978081A1F
:103E1000FCF771FB41EC110B9FED3A0B00F060FADF
:103E2000EF78B0EE408A08EB0700F0EE608A10F8F9
:103E3000010C3038FCF75FFB53EC182BFCF7E9FA68
:103E400041EC180BA868FCF774FB53EC182BFCF73B
:103E500039FAFCF781FB7F1EA860EF70E878042830
:103E6000D4D298F801003038032811D2DFE800F0EE
:103E700002070B0095ED020A86ED000A08E095EDB9
:103E8000020A224802E095ED020A214880ED000A6C
:103E90006C70AC70EC7085ED029A32211548FCF71D
:103EA00006FA96ED000AB5EEC00AF1EE10FA01D25C
:103EB00086ED009A0020BDEC048BBDE8F081000087
:103EC000004C004000020020A80000205501002006
:103ED0005401002056010020570100205801002005
:103EE000590100207C0100207D0100207E0100207E
:103EF0000000C842380600200000000048010020F1
:103F00007F01002000000000000024404C01002040
:103F10005001002070B5284C40F22551204600F099
:103F2000F7F8E8B3204600F081F9C1B223480068F1
:103F3000B0F5967F3EDB234A214C002510787B2983
:103F4000215400D028B1401CC0B210700B2802D000
:103F500030E015702EE01570A07A7D282AD100215E
:103F60000920FDF7F3F9617A884223D116481A49EE
:103F70000570164805701648057016480570012032
:103F80000870164805702179E07800F055F914485A
:103F900080ED000AA179607900F04EF9114800E047
:103FA00008E080ED000A217AE07900F045F90E483A
:103FB00080ED000A002070BD00100140A801002023
:103FC0009C060020A800002054010020560100207B
:103FD000550100205701002058010020E801002071
:103FE00060010020640100206801002000B5054B3D
:103FF0000022985C02F07AFC521CD2B2182AF8D344
:1040000000BD00006A06002070B5284C40F2255122
:10401000204600F07DF8E0B3204600F007F9C1B279
:1040200023480068B0F5967F3DDB234A214C0025EC
:1040300050797B29215400D028B1401CC0B2507166
:104040000B2802D02FE055712DE05571A07A7D2804
:1040500029D100210920FDF779F9617A884222D11E
:104060001648057016480570164805701648057004
:1040700016480570164805702179E07800F0DCF8E4
:10408000144880ED000AA179607900F0D5F8124853
:1040900000E008E080ED000A217AE07900F0CCF839
:1040A0000E4880ED000A002070BD0000004800406E
:1040B000A80100209C060020A80000205401002038
:1040C0005601002055010020570100205801002012
:1040D000E801002060010020640100206801002048
:1040E00000B5054B0022985C02F008FC521CD2B2CD
:1040F000182AF8D300BD00006A0600200029818933
:1041000002D041F4005101E021F400518181704757
:1041100070B501F01F0501260024C1F3421306FA11
:1041200005F2012B0FD0022B0FD0838A4FEA112109
:104130000088134206FA01F600EA060001D000B139
:104140000124204670BD8389F0E7038AEEE710B5AD
:10415000C1F3421301F01F040121A140012B07D03C
:10416000022B07D01430002A026805D00A4304E06D
:104170000C30F8E71030F6E78A43026010BD00000B
:104180007FB50446008A0D46C98820F4405001439B
:104190002182A08941F20C618843A9882A891143B0
:1041A0006A8902431143A181A08A20F44071A88941
:1041B0000843A0826846FEF7A1FE1A48844202D056
:1041C0001948844201D1039800E00298A1890904AA
:1041D00000EBC00101EB0010296801D5490000E0A7
:1041E0008900B0FBF1F06422B0FBF2F109010B0988
:1041F0006FF018056B4300EB8300A3891D044FF09B
:10420000320306D503EBC000B0FBF2F000F007006C
:1042100005E003EB0010B0FBF2F000F00F000843E4
:1042200020817FBD00100140001401408088C0F350
:1042300008007047FEE7000070B501EB002004B2F3
:104240004FF47A7594FBF5F005FB10402DED028BD1
:10425000FCF751F99FED0B1B53EC112BFCF7D9F830
:1042600041EC180B94FBF5F0FCF745F953EC182BD7
:10427000FCF728F8FCF770F9BDEC028B00EE100A91
:1042800070BD0000FCA9F1D24D62503F0FB4054B48
:1042900010B503A9044A029800F030FF10BC5DF885
:1042A00014FB0000D5540008BC00002003B40198A2
:1042B0004100009850EAC12018BF04204A0D18BFE1
:1042C00040F0010040F2FF72B2EB515F08BF40F0D6
:1042D0000200012808BF052002B07047000000005E
:1042E0002DE9F04D2DED040B2DED0E8B96B0DDE993
:1042F0002550279CDDF890A025F0004624F00048CA
:10430000BAF1000F14BF0121002101EB4502FC4965
:1043100053184A1093422AD3002814BF01230023C4
:1043200003EB44030B44F7498B4220D358EA0001C6
:104330009FEDF59B76D0DFF8D8B35D4503D1BAF198
:10434000000F05D188E0BAF1000F08BF002100D0AE
:10435000012101EB450111F5001F08D8002814BF09
:104360000121002101EB440111F5001F0BD99DED46
:10437000261B9DED240B16B0BDEC0E8B04B0BDE8E2
:10438000F04D00F069BE0027002DBCBFE149884513
:1043900021DAE1498845A8BF02271CDAC3451ADCA7
:1043A000DE4901EB2851142908DDC1F1340220FA5D
:1043B00002F101FA02F282420DD108E058B9C1F1CE
:1043C000140228FA02F101FA02F2424503D101F087
:1043D0000101C1F1020756EA0A0124D1002C22DAB8
:1043E000002D18BF022F01D0012F0AD0022000F0AB
:1043F0007FFE16B0BDEC0E8B04B0BDE8F04D00F0B2
:1044000013BE022000F074FE00F00EFE51EC100B03
:1044100081F0004141EC100B16B0BDEC0E8B04B0E6
:10442000BDE8F08D18E09FEDBEAB9FEDBF8B00287F
:1044300071D1B848804522D105F1804010F5801037
:1044400008BFBAF1000F07D0B3450ADC002CA8BFA3
:104450009DED260BE0DA0DE0B0EE490AF0EE690AB8
:10446000DAE7002C06DA9DED260B51EC100B81F0FB
:1044700000416FE0AE48784490ED000BCCE7D845A2
:104480004DD1002C48DA2EB186423AD1BAF1000F54
:1044900042D126E0BAF1000F13D0022000F028FE2E
:1044A00000F0F6FD8DED020B9DED240B8DED000B64
:1044B00010EE900A039961F31E0003909DED020B2C
:1044C000AAE78DED02AB9DED240B1AEE901A10EECB
:1044D000900A8DED000B61F31E0003909DED020B21
:1044E0009AE78DED028B9DED240B18EE901A10EEDD
:1044F000900A8DED000B61F31E0003909DED020B01
:104500008AE709DA9DED240B51EC190B53EC102BC3
:10451000FCF709F91EE020E09DED240B7CE78642C4
:104520001BDAB4F1804F0DD0A4F10050B0F1FF5070
:1045300013D1002D11DB9DED240B51EC100B01F07C
:10454000C9FF07E09DED240B53EC102B51EC100B31
:1045500000F0C2BC41EC100B5EE79DED240B51EC6A
:10456000100B00F0ABFFBAF1000FCDE90E0142D104
:104570009FED710B46B3A6F1E040B0F17F600CD027
:104580005E4538D1002D00DAA7B3022F0CBF012001
:104590004FF0FF30FBF7AFFFDCE7002D01DD002C13
:1045A0000DDA002D01DD002C1FDB002D16DA002CAA
:1045B00014DB012F08BF9FED620B3FF42DAFB0EE6F
:1045C0004A0AF0EE6A0A27E7022F18BF002D0CD026
:1045D000012F0AD1002DFFF61FAF06E0002DB8BF56
:1045E000002C08DA012F3FF417AFB0EE480AF0EEC6
:1045F000680A11E71BE0012000EBE57050EA0701B3
:1046000015D0791EB0EE498AF0EE698A084308BFDA
:104610009FED4D8B4E480025804570DD4D494E483D
:10462000884514DDB0420DDB002C19DB2FE00120A2
:1046300000F05EFD16B0BDEC0E8B04B0BDE8F04D91
:1046400000F016BDB34502DC002C09DC1FE08642F9
:1046500002DA002C1BDA03E05E452BDD002C16DDB0
:10466000022000F045FD00F013FD8DED020B53EC30
:104670001A2B51EC180BFBF7CCFECDE90001039986
:10468000019861F31E0003909DED020BC4E6022029
:1046900000F02EFD00F00CFD10EE901A18EE900ABE
:1046A0008DED020B8DED008B61F31E0003909DEDEF
:1046B000020BB1E69DED0E0B53EC192B51EC100BD8
:1046C000FBF7A1FE9FED260BCDE9080153EC102B63
:1046D0009DED080B51EC100BFBF79BFE9FED221B91
:1046E00053EC112BFBF792FE9DED081B53EC112BA5
:1046F000FBF78FFE9FED1E1B53EC112B3CE08CE073
:10470000FFFF1F00FFFF0F00000000000000F03F50
:104710000000F03F0000F07F0000404301FCFFFF7D
:10472000000000000000F07F00000000000000001A
:10473000464D000000000000000000000000008066
:10474000000000000000F0FF000000000000F0BFCB
:104750000000E0410000F043FFFFEF3F00000000D9
:10476000000000000000D03F555555555555D53F28
:10477000000000000000E03FFBF748FE9DED080B45
:1047800041EC1A0B53EC102B51EC100BFBF741FED4
:1047900053EC1A2BFBF73DFE41EC1A0B9FEDFE0B81
:1047A00053EC102B9DED080B51EC100BFBF731FE79
:1047B00041EC1B0B9FEDFA0B51EC1A0B53EC102B39
:1047C000FBF727FE41EC1A0B9FEDF70B53EC102B78
:1047D0009DED080B51EC100BFBF71BFE53EC1A2B55
:1047E000FBF711FE41EC1A0B51EC1B0B53EC1A2B8F
:1047F000FBF768FD0690CDE906519DED060B53ECE5
:104800001B2B51EC100BFBF7FEFD53EC1A2BFBF7A7
:10481000FDFD41EC100B00F0A1B90020B6F5801FA2
:104820000EDA9FEDE30B53EC102B9DED0E0B51ECCC
:10483000100BFBF7EEFDCDE90E016FF034000E46D4
:1048400000EB2650A0F2FF37C6F31300DA4940F020
:104850007F6646F040568842D8BF002408DDD7491D
:104860008142C8BF012403DC0024A6F580167F1C0A
:10487000D348784400EBC4000F9690ED00CB9DED3B
:104880000E0B53EC1C2B51EC100BFBF7BCFD9DEDFC
:104890000E0B41EC1B0B53EC1C2B51EC100BFBF7DC
:1048A00011FD41EC100B51EC190B53EC102BFBF7E5
:1048B0003AFF41EC1D0B51EC1B0B53EC1D2BFBF78E
:1048C000A8FD41EC1A0BBF488DED10AB7844109554
:1048D00090ED000B4FF0005040EA660000EB844082
:1048E0008DED080B00F5002009909DED080B53ECB1
:1048F0001C2B51EC100BFBF786FD9DED0E1B53ECB2
:10490000112BFBF783FD41EC100B53EC102B9DEDAD
:10491000100B51EC100BFBF77CFD9DED080B41ECEF
:104920001C0B53EC102B9DED100B51EC100BFBF7F7
:1049300070FD53EC1B2BFBF769FD53EC1C2BFBF7B5
:1049400062FD53EC1D2BFBF764FD41EC1C0B53EC9B
:104950001A2B51EC1A0BFBF75CFD41EC1B0B9A4830
:104960000621B0EE4B0AF0EE6B0A784400F0E0FA54
:10497000B0EE401AF0EE601AB0EE41DAF0EE61DA15
:1049800053EC1B2B51EC1B0BFBF743FD53EC1D2B86
:10499000FBF73FFD9DED100B41EC1B0B53EC1A2B6D
:1049A00051EC100BFBF78EFC53EC1C2BFBF731FD8D
:1049B00053EC1B2BFBF786FC9DED100B41EC1B0B06
:1049C00053EC102B51EC100BFBF723FD41EC1D0BAE
:1049D0009FED7FEB53EC1E2BFBF774FC53EC1B2B72
:1049E000FBF770FC0890CDE908519DED080B53ECE6
:1049F0001E2B51EC100BFBF706FD53EC1D2BFBF7A8
:104A000002FD53EC1B2BFBF701FD9DED080B41EC68
:104A10001D0B53EC102B9DED100B51EC100BFBF705
:104A2000F8FC41EC1B0B53EC1A2B51EC1D0BFBF764
:104A3000F0FC9DED080B41EC1A0B53EC102B51ECE4
:104A40001C0BFBF7E6FC53EC1A2BFBF73BFC41EC91
:104A50001A0B51EC1B0B53EC1A2BFBF733FC0C908D
:104A6000CDE90C519DED0C0B53EC1B2B51EC100BB5
:104A7000FBF7C9FC53EC1A2BFBF7C8FC41EC1B0BF2
:104A80009FED550B53EC102B9DED0C0B51EC100BC7
:104A9000FBF7BFFC41EC1A0B9FED510B51EC1B0BCC
:104AA00053EC102BFBF7B5FC41EC1B0B9FED4E0BB1
:104AB00053EC102B9DED0C0B51EC100BFBF7A9FCEC
:104AC00053EC1B2BFBF7FEFB41EC100B48487844E2
:104AD00000EBC40090ED001B51EC100B53EC112BBC
:104AE000FBF7F0FB41EC1B0B3846FBF704FDCDE96F
:104AF000080153EC1B2B51EC1A0BFBF7E3FB41ECC9
:104B0000100B3C48784400EBC40090ED00CB51EC16
:104B1000100B53EC1C2BFBF7D5FB9DED081B53EC46
:104B2000112BFBF7CFFB0690CDE906519DED080B4D
:104B300053EC102B9DED060B51EC100BFBF763FCB7
:104B400053EC1C2BFBF75FFC53EC1A2BFBF75BFCC5
:104B500053EC1B2BFBF75AFC41EC100B9DED261B75
:104B600053EC102B8DED001B00959DED260B51ECA9
:104B7000100BFBF74EFC9DED000B41EC1A0B53ECB8
:104B8000102B9DED260B51EC100BFBF73CFC9DED23
:104B9000061B53EC112B2FE0000000604715F73F78
:104BA000FE822B654715F73F44DF5DF80BAE543EA0
:104BB00000000000000040438E9803007AB60B000E
:104BC000C2480000F0480000FA4700000000000062
:104BD0000000000000000840000000E009C7EE3FB0
:104BE000FD033ADC09C7EE3FF5015B14E02F3EBE42
:104BF0008646000040460000FBF70BFC53EC1A2BE6
:104C0000FBF760FB9DED060B41EC1A0B53EC102BF0
:104C10009DED000B51EC100BFBF7FBFBCDE90C01FC
:104C20009DED0C0B51EC1A0B53EC102BFBF74AFBD0
:104C3000CDE902010C46AA498C422FDB611A0843D8
:104C400018D19DED0C0B53EC102B9DED020B51EC8C
:104C5000100BFBF7D8FB41EC1B0B9FEDA30B51ECAA
:104C60001A0B53EC102BFBF72DFB53EC1B2BFBF714
:104C7000E1FD2DD2022000F03BFA00F009FA10EE1F
:104C8000901A18EE900A8DED020B8DED008B61F3FA
:104C90001E0003909DED020BFFF7BEBB944A24F06B
:104CA0000041914214D39349214408437FF4EFAC6F
:104CB0009DED0C0B53EC102B9DED020B51EC100BEA
:104CC000FBF7A1FB53EC1A2BFBF7B4FD7FF6DFAC2F
:104CD00024F000408849894A002601EB2051824295
:104CE0002BDA481C4FF4801121FA00F02044844A4A
:104CF000C0F30A517A44A1F2FF3192ED000B814AD0
:104D00008DED080BCA4020EA0202C0F3130040F404
:104D10008010C1F1140120FA01F60992002CB8BFED
:104D200076429DED080B53EC102B9DED0C0B51ECD6
:104D3000100BFBF768FBCDE90C019DED0C0B51EC62
:104D40001A0B53EC102BFBF7BDFA9FED6F0B08907D
:104D5000CDE9085153EC102B9DED080B51EC100BD5
:104D6000FBF757FB41EC1B0B9FED690B53EC102B32
:104D70009DED080B51EC100BFBF74BFB9DED0C0B65
:104D800041EC1C0B53EC102B9DED080B51EC100B60
:104D9000FBF739FB53EC1A2BFBF738FB9FED5E1B3F
:104DA00053EC112BFBF735FB53EC1C2BFBF78AFA6A
:104DB00041EC1A0B51EC1B0B53EC1A2BFBF782FA4C
:104DC000CDE902019DED020B53EC1B2B51EC100BB6
:104DD000FBF719FB53EC1A2BFBF718FB9DED020BAD
:104DE00041EC1A0B53EC102B51EC100BFBF711FBA1
:104DF000CDE908014A489DED080B0521784400F0F3
:104E000097F89DED081B51EC100B53EC112BFBF7A1
:104E100000FB9DED021B53EC112BFBF7F7FACDE9DC
:104E200006019DED020B53EC1A2B51EC100BFBF716
:104E3000F0FA53EC1A2BFBF745FA9FED3B0B41ECD4
:104E40001A0B53EC102B9DED060B51EC100BFBF7DE
:104E5000DAFA9DED060B41EC1B0B53EC102B9DED8C
:104E6000020B51EC100BFBF7D4FA53EC1B2BFBF7A6
:104E70005AFC53EC1A2BFBF7C6FA9DED021B53ECC0
:104E8000112BFBF7C0FA53EC192BFBF7BFFACDE956
:104E9000020101EB065001150029C8BF039015DC83
:104EA0009DED020B324651EC100BFBF7ABFCFFF70C
:104EB000FDF9042808BF00F0FBF832469DED020B17
:104EC00051EC100BFBF79EFCCDE902019DED020BAE
:104ED00051EC180B53EC102BFBF79BFAFFF73ABB86
:104EE0000000904000000000FE822B654715973CB3
:104EF00000CC904000346F3F01FCFFFF0000E03F1A
:104F0000C8440000FFFF0F0000000000432EE63FF2
:104F1000396CA80C615C20BEEF39FAFE422EE63FE8
:104F20009843000000000000000000000000004066
:104F300070B504462DED028B4D1E00EBC500B0EEA2
:104F4000408AF0EE608A90ED000B35F0060017D035
:104F500053EC182B51EC100BFBF75BFA41EC100BE8
:104F60006D1E04EBC50090ED001B51EC100B53ECD3
:104F7000112BFBF7A7F941EC100B35F00600E7D138
:104F8000022D36D0042D1CD0062D1CBFBDEC028B8B
:104F900070BD53EC182B51EC100BFBF73AFA94ED63
:104FA0000A1B53EC112BFBF78DF953EC182BFBF775
:104FB00030FA94ED081B53EC112BFBF783F941EC0D
:104FC000100B53EC182B51EC100BFBF722FA94ED5D
:104FD000061B53EC112BFBF775F953EC182BFBF761
:104FE00018FA94ED040B53EC102BFBF76BF941EC22
:104FF000100B53EC182B51EC100BFBF70AFA94ED45
:10500000021B53EC112BFBF75DF953EC182BFBF74C
:1050100000FA94ED001B53EC112BFBF753F9BDEC98
:10502000028B41EC100B70BD9FED070B10B553ECDC
:10503000102B9FED070B51EC100BFBF774FB41ECB1
:10504000100B10BD00000000000000000000000078
:10505000000000000000F03F10B553EC112B51ECA4
:10506000100BFBF72FF941EC100B10BD00000000F6
:105070009FED050B10B553EC102B51EC100BFBF70B
:1050800052FB41EC100B10BD0000000000000000BE
:105090009FED050B10B553EC102B51EC100BFBF7EB
:1050A000B8F941EC100B10BD0000000000000070CA
:1050B0009FED050B10B553EC102B51EC100BFBF7CB
:1050C000A8F941EC100B10BD00000000000000101A
:1050D00002E008C8121F08C1002AFAD170477047C1
:1050E000002001E001C1121F002AFBD1704700001F
:1050F0000149086070470000280200202DE9FF4F99
:105100008BB09A460F460546002606E025280BD0B0
:1051100052460D9990476D1C761C28780028F5D1D1
:105120000FB03046BDE8F08F0024A0460122604950
:1051300000E0044315F8013F203B02FA03F0084267
:10514000F7D128782E2817D115F8010F44F0040460
:105150002A280ED06FF02F022878A0F130010929FB
:105160000AD808EB880102EB410100EB01086D1C35
:10517000F2E757F8048B6D1C287869283ED006DCCE
:105180000028CDD063280BD0642804D136E07328E2
:1051900010D075284BD052460D999047761C85E06B
:1051A00017F8040B8DF8000000208DF80100E94687
:1051B000012003E057F8049B4FF0FF3061074FF0E8
:1051C000000401D40AE0641C44450DDA8442FADB91
:1051D00019F804100029F6D106E0641C8442FCDBB7
:1051E00019F804100029F8D1264404E019F8010B3D
:1051F00052460D999047641EF8D257E001CF4FF008
:105200000A0B002802DA40422D2102E0210504D5D4
:105210002B218DF82410012103E0E10705D0202186
:10522000F7E70DF1200908910CE00021F9E701CF23
:105230004FF00A0BF9E75946FBF7AAF901F13002E2
:1052400009F8012D0028F6D1ADEB090000F1200B83
:10525000600701D44FF00108D84502DDA8EB0B0030
:1052600000E000208046002406E009A85246005DC8
:105270000D999047641C761C08988442F5DB04E085
:10528000302052460D999047761CB8F10001A8F1E4
:105290000108F5DC05E019F8010B52460D9990471D
:1052A000761CBBF10001ABF1010BF4DC6D1C34E7A3
:1052B0000928010009480A49027812B1D1F81422DC
:1052C00022B1D1F81412012904D005E000210170A7
:1052D000012070470121017000207047200000204C
:1052E0000000414208B500F001F900903221684603
:1052F00001F0CEFC00F008F8FEF778FEFEF7F0FEB5
:10530000FBF7F8FFF2E70000F0B5394C7B20207680
:105310007D2084F82E003748D0ED001A364890EDF5
:10532000001A3648D0ED000A354890ED000AFDF726
:1053300085F83448354FB0F90250658401884942F8
:105340000BB2A384B0F904202F48E284B0F9021014
:1053500021850688764236B266853F78EFB3002015
:10536000A0852B48DFED2B0A90ED000A20EE200AE5
:10537000BDEEC00A10EE100A208494F818C084F81C
:1053800000C06770678B4FEA172C84F802C0E77083
:10539000A78B4FEA172C84F804C06771E78B4FEA9C
:1053A000172C84F806C0E7712F0A277265721D0A50
:1053B000A572E372130A237362730A0AA273E1737C
:1053C000310A21746674A18D0A0AA274E174010A7B
:1053D000217560750121162000E006E0FBF7B6FF9D
:1053E000A07594F82E00E075F0BD8088B8E7000045
:1053F0006A060020685A00204C5A0020305A0020CB
:10540000145A00200A020020040200204401002057
:105410001800002000007A4410B504460420FEF76E
:1054200003F80A484FF47A71047014FB01F1012269
:1054300042804FF0E020026942F0020202614161C5
:10544000016941F00101016110BD0000B4000020BC
:1054500070B5044602F0C2F901280CD0094D6888E5
:10546000844203D3B4FBF0F001F0DCFB6888B4FBAA
:10547000F0F100FB11444FF47A706043BDE87040D6
:1054800000F002B8B400002070B54FF0E025002114
:105490006C69094AAB6912785043AA699A42FCD0F8
:1054A00002D2A3EB020302E0A4EB02063344194448
:1054B00013468142F1D370BDB400002082B0CDE923
:1054C000000121F0004001909DED000B02B051EC75
:1054D000100B704704490A885206FCD5024AC1B233
:1054E000121D118070470000004C004010B502F002
:1054F00075F9012803D0BDE8104002F07DB90148DC
:10550000406810BDB4000020054C064DD4F8B80228
:10551000C043C4F8B802286801F084FBF6E7000035
:1055200000804142340000201CB501F083F8074997
:105530000120CDE900010202002305A1074802F085
:1055400021F901F025FD00201CBD00000000002015
:1055500073746172745F7461736B00004565000859
:10556000002800DA404270470346012000E058431B
:10557000491EC9B2FBD2704770B50A212DED028BCE
:1055800082B00C20FCF706FAFA49096890FBF1F5A5
:10559000F94890ED000ADFEDF90AF94E002120EEFE
:1055A000200AF8A20846BDEEC00A86ED040AFDF7FF
:1055B00037F9F6480C24006810B1012808D00CE037
:1055C00001232A46002128200094FDF7EDF804E08D
:1055D000EFA200212820FDF723F9EEA200213720B9
:1055E000FDF71EF9EC4DB5F90400002809DAEBA22D
:1055F00000215020FDF714F90094B5F9040042424F
:1056000007E0E7A200215020FDF70AF90094B5F960
:105610000420052300215A20FDF7C6F8E1A20A2143
:105620000020FDF7FDF8E04D95ED040A9FEDDF8ABF
:10563000DFEDDF8AB5EEC00AF1EE10FA0AD2D7A28A
:105640000A210F20FDF7ECF8009495ED040A20EEF6
:10565000080A09E0D2A20A210F20FDF7E1F8009420
:1056600095ED040A20EE280A05230A211420BCEE39
:10567000C00A10EE102AFDF797F895ED000AB5EE76
:10568000C00AF1EE10FA0AD2C4A20A213C20FDF7AA
:10569000C7F8009495ED000A20EE080A09E0C0A2C0
:1056A0000A213C20FDF7BCF8009495ED000A20EE9D
:1056B000280A05230A214B20BCEEC00A10EE102A4E
:1056C000FDF772F8BBA214210020FDF7A9F8BA4D2E
:1056D00095ED040AB5EEC00AF1EE10FA0AD2AFA2B7
:1056E00014210F20FDF79CF8009495ED040A20EE9C
:1056F000080A09E0AAA214210F20FDF791F80094EE
:1057000095ED040A20EE280A142105230846BCEE74
:10571000C00A10EE102AFDF747F895ED000AB5EE25
:10572000C00AF1EE10FA0AD29CA214213C20FDF727
:1057300077F8009495ED000A20EE080A09E098A297
:1057400014213C20FDF76CF8009495ED000A20EE42
:10575000280A052314214B20BCEEC00A10EE102AA3
:10576000FDF722F895A21E210020FDF759F8944D6F
:1057700095ED040AB5EEC00AF1EE10FA0AD287A23E
:105780001E210F20FDF74CF8009495ED040A20EE41
:10579000080A09E082A21E210F20FDF741F80094BB
:1057A00095ED040A20EE280A05231E211420BCEEE4
:1057B000C00A10EE102AFCF7F7FF95ED000AB5EECF
:1057C000C00AF1EE10FA0AD274A21E213C20FDF7A5
:1057D00027F8009495ED000A20EE080A09E070A26F
:1057E0001E213C20FDF71CF8009495ED000A20EEE8
:1057F000280A05231E214B20BCEEC00A10EE102AF9
:10580000FCF7D2FF6FA228210020FDF709F86E4DAA
:1058100095ED040AB5EEC00AF1EE10FA0AD25FA2C5
:1058200028210F20FCF7FCFF009495ED040A20EEE0
:10583000080A09E05AA228210F20FCF7F1FF009482
:1058400095ED040A20EE280A052328211420BCEE39
:10585000C00A10EE102AFCF7A7FF95ED000AB5EE7E
:10586000C00AF1EE10FA0AD24CA228213C20FCF723
:10587000D7FF009495ED000A20EE080A09E048A23F
:1058800028213C20FCF7CCFF009495ED000A20EE87
:10589000280A052328214B20BCEEC00A10EE102A4E
:1058A000FCF782FF4948007801281AD04848007860
:1058B000012818D047480078012816D046480078BB
:1058C000012814D045480078012812D044A2322182
:1058D0000020FCF7A5FF4448D0F8100201280AD0A8
:1058E0000CE042A2F3E743A2F1E744A2EFE745A2AE
:1058F000EDE746A2EBE747480078C0B346A2322165
:105900002D20FCF78DFF45A232215820FCF788FF9F
:1059100043A232216E20FCF783FF3069642590FB9F
:10592000F5F2022332214B200094FCF73DFF306951
:10593000022390FBF5F105FB110232216220009455
:10594000FCF732FF306990FBF5F105FB11000A28E6
:1059500006DA0223002232215C200094FCF724FFA7
:1059600002B0BDEC028BBDE87040FCF7B7BE2DA2C3
:10597000C5E700005C010020180000200000C842BC
:10598000EC010020545950453A00000094010020D9
:1059900058000000475A0000040200202D000000BB
:1059A0002B00000041000000145A002000007AC4BF
:1059B00000007A4442000000305A002043000000FA
:1059C0004C5A002044000000685A00205401002076
:1059D00055010020560100205701002058010020E9
:1059E000524F53202000000000004242505332200A
:1059F000200000004150502020000000522D432084
:105A00002000000043414E20200000005553415229
:105A100054000000440100204F4646002E000000C4
:105A2000560000004F204E002DE9F041184E0F4661
:105A30000446F5683068001D00F06AFF38B9306828
:105A400090F82C1001208840316981433161601C3D
:105A500007D137B13168BDE8F0410E48091D00F0AB
:105A60008FBF30682C44AC424460316805D2B06BC3
:105A7000BDE8F041091D00F06BBF706B091D00F01F
:105A800067FFB06A844200D2B462BDE8F0810000D2
:105A9000D0000020CC0900202DE9F041054600F09F
:105AA0007BFF2D4EB068401CB06030682B4F10B1AA
:105AB000706930B32BE03560B068012827D100242D
:105AC00004EB840007EB800000F034FF641C202C02
:105AD000F6D3234800F02EFF2148143000F02AFFAF
